:100000000C94D0020C9401030C9401030C94010392
:100010000C9401030C9401030C9401030C94010350
:100020000C9401030C9401030C9401030C94010340
:100030000C9401030C9401030C9401030C94010330
:100040000C9401030C9401030C9401030C94010320
:100050000C9401030C9401030C9401030C94151BE4
:100060000C9401030C9475160C9465170C94010301
:100070000C9401030C9401030C9401030C940103F0
:100080000C9401030C9401030C9401030C940103E0
:100090000C94A9160C94A4170C9401030C9401035E
:1000A0000C9401030C9401030C9401030C940103C0
:1000B0000C9401030C9401030C9401030C940103B0
:1000C0000C9401030C9401030C9401030C94DD16B1
:1000D0000C94E3170C9401030C9411170C94221840
:1000E0000C9401032B1C2E1C211C251C651C321C8E
:1000F000361C3C1C401C441C4A1C4E1C521C651CDB
:10010000581C5C1C601C232044656D65746572205E
:1001100023003C68313E48656C6C6F2C20576F7231
:100120006C64213C2F68313E00232048656C6C6F65
:1001300020776F726C64202100485454502F312E68
:100140003020323030204F4B0D0A53657276657285
:100150003A205765626475696E6F2F312E370D0A2C
:100160004163636573732D436F6E74726F6C2D41C1
:100170006C6C6F772D4F726967696E3A202A0D0A91
:10018000436F6E74656E742D547970653A2000006B
:1001900000010001001010020001000100B0000089
:1001A00000160000002800000010000000200000E1
:1001B000000100010000000000000000000000003D
:1001C000000000000000000000000000000000002F
:1001D00000FF000000FFFF0000FFFF0000FFFF0026
:1001E00000CFBF0000C7BF0000C3BF0000C1BF00F9
:1001F00000C0BF000000000000C0BF0000C1BF0081
:1002000000C3BF0000C7BF0000CFBF0000FFFF005A
:1002100000FFFF00000000000000000000000000E0
:1002200000000000000000000000000000000000CE
:1002300000000000000000000000000000000000BE
:1002400000000000000000000000000000000000AE
:100250000000000000557365722D6167656E743A89
:10026000202A0D0A446973616C6C6F773A202F0D58
:100270000A00485454502F312E3020343030204260
:10028000616420526571756573740D0A53657276E9
:1002900065723A205765626475696E6F2F312E372B
:1002A0000D0A436F6E74656E742D547970653A2033
:1002B000746578742F68746D6C0D0A0D0A3C683192
:1002C0003E45504943204641494C3C2F68313E0051
:1002D0000000090A02080B0C0D07060304010000C8
:1002E000000000000000000000000000000000000E
:1002F00000000000000000000000000011100F00CE
:1003000000000000000000000000000000000000ED
:10031000000000000000010210202008081020400A
:1003200010204080020102010804020101020408B9
:100330001020408080402010080402018004020147
:100340008040201008040201080402010102040890
:10035000102040800102040810204080050505059A
:10036000070508080808020202020A0A080804042D
:10037000040401010101010101010303030303035B
:100380000303040707070C0C0C0C0C0C0C0C0202EA
:10039000020206060606060606060B0B0B0B0B0BE7
:1003A0000B0B00002200250028002B002E0031003E
:1003B000340002010000050108010B0100002100CA
:1003C000240027002A002D00300033000101000026
:1003D000040107010A010C941E160C944E1C0C9487
:1003E00069090C943C0E0C94B70B0C94581C0C949B
:1003F000B5150C944B0B0C9454150C94710B0C9478
:100400004A1C0C948B120C948B090C940E0C0C94BB
:10041000D6090C94B3140C94361C0C94990E0C94BD
:10042000820B0C94B20B0C94AA0E0C94C4090C947D
:10043000BC0C0C94A8050C94FF0C0C9453080C9461
:10044000F0090C947A050C94A90B0C9444170C94A5
:10045000DB0A0C94F10B0C94D10B0C94A2090C94B4
:10046000410F0C94280C0C94651C0C94211C0C94CA
:10047000100A0C94D0090C9448050C9436080C947E
:10048000B60C0C9489130C94790A0C9402130C94F6
:10049000AD0D0C94181A0C94A51C0C9403050C9427
:1004A000EA040C943C1C0C9469070C94400B0C94CB
:1004B000401C0C945A150C942E0C0C94E2180C94BD
:1004C000630B0C94521C0C9490080C94EF0D0C943C
:1004D000D6080C94B3060C94280D0C94F1150C94CA
:1004E00025150C945C1C0C94C4150C946B0B0C948B
:1004F0002B1C0C942E1C0C947F100C94720C0C94DE
:10050000DC080C94251C0C94F6090C9480050C94C2
:10051000C81A0C94E5140C94BF040C94530B0C945F
:1005200089140C94940B0C946C0C0C94AA090C94E4
:10053000EB090C94601C0C943C080C941E1A0C944F
:10054000590D0C9474090C9415090C9460130C94B7
:10055000160A0C94CB0B0C94A1030C94321C0C9433
:10056000441C0C947A090C944D080C94670B0C9461
:1005700065040C94140C0C9400060C94D6150C9481
:100580007F0A0C941C0B0C9421080C941316EA049B
:100590006909400BFF0C3C0E990E2515B515E218A4
:1005A00011241FBECFEFD1E2DEBFCDBF00E00CBFF4
:1005B00013E0A0E0B2E0E0ECFAE300E00BBF02C021
:1005C00007900D92AC35B107D9F717E0ACE5B3E071
:1005D00001C01D92A731B107E1F715E0C0EAD5E0EF
:1005E00000E006C022970109FE010BBF0E94311DE9
:1005F000CE38D10780E00807A9F70E9447150C9470
:100600005E1D0C9400000F931F93CF93DF93EC01BA
:100610008B011B821A8288EF92E099838883BA014A
:10062000CE0104960E94800864E0CE010A960E94E2
:10063000590A188F0F8B19AE1BAE1AAEFE01E05986
:10064000FF4F85E694E091838083FE01EE58FF4FD3
:1006500091838083FE01EC56FF4F1082FE01EB5622
:10066000FF4F11821082C954DF4F1882DF91CF9162
:100670001F910F910895CF93DC01AC56BF4FCC91E1
:10068000C830C8F42C2F30E0F9017D96EE0FFF1F23
:10069000EE0FFF1FE80FF91F71836083CF5FCC93CC
:1006A000220F331F220F331F280F391FF901EA5879
:1006B000FF4F51834083CF910895EF92FF920F93A4
:1006C0001F93CF93DF937C018A01060F171FEB0165
:1006D000C017D10761F0FE016491D701ED91FC9143
:1006E0000190F081E02DC70119952196F1CFCDB78A
:1006F000DEB7E6E00C941C1D0F931F93CF93DF939E
:10070000EC01FB0164918F010F5F1F4F662349F0DD
:10071000E881F9810190F081E02DCE011995F80171
:10072000F1CFDF91CF911F910F91089568ED72E0A5
:100730000E94741A0895A1E1B0E0E1EAF3E00C949C
:10074000F61C7C015B01DA018C91882339F08F3231
:1007500009F0B1C011968C91811109C0F701EE58D2
:10076000FF4F0190F081E02D4AED52E00AC08F3337
:1007700061F4F701EE58FF4F4E5F5F4F0190F0813B
:10078000E02DB501C701199594C06A01BFEFCB1ADE
:10079000DB0A6FE370E0C601298B0E943C1D2989AA
:1007A000009741F4F60101900020E9F78F01015014
:1007B000110901C08C010C191D0955245394892B72
:1007C00009F4512CF701EC56FF4F40803701812C82
:1007D000912C841468F5F301EC58FF4F608171810E
:1007E000FB0101900020E9F73197E61BF70B0E178C
:1007F0001F07B9F4A801C601298B0E94501D298941
:10080000892B79F4880C991C880C991C8E0C9F1CE0
:10081000F401EA58FF4FA801450D511D4C0D5D1D17
:10082000ADCFFFEF8F1A9F0A84E0680E711CD1CF05
:100830004701A5E98A0E911CF40180819181892BE1
:10084000D1F1AE014F5F5F4F80E1DA011D928A95D1
:10085000E9F73601600E711EF3011082DA82C98257
:10086000C60161E070E001C0BD01DC01861597059D
:1008700098F401963C913F32C1F7DC0111971C922C
:10088000DB011196660F771F640F751FFB019183C3
:100890008083A830B10541F7C801850D911D8C0DED
:1008A0009D1DD401ED91FC91022F9C01B501C70162
:1008B000199581E001C080E06196E0E10C94121D81
:1008C00062E772E00E947C0308950E94600408952C
:1008D000EF92FF920F931F93CF93DF93EC017B0175
:1008E0008A0169E371E00E947C03B701CE010E9496
:1008F000741ACE010E9496030115110521F0B8016A
:10090000CE010E94741ACE010E949603CDB7DEB7C5
:10091000E6E00C941C1D0F931F93CF93DF93EC0123
:100920008B0140E050E067E172E00E946804023011
:10093000110529F065E572E0CE010E947C03DF918C
:10094000CF911F910F9108950F931F93CF93DF9332
:10095000EC018B0142E252E064E472E00E94680420
:100960000230110539F046EC50E06FE871E0CE013D
:100970000E945D03DF91CF911F910F910895CF9356
:10098000DF93EC0169E271E08CEC94E00E949E1A26
:1009900040E050E061E572E0CE010E94680462E14F
:1009A00071E0CE010E947C03DF91CF910895FC019C
:1009B0006F3F8FEF780769F091AD81E0890F81AFCC
:1009C000DF01A90FB11D59966C93803211F48FE1AC
:1009D00081AF08950F9300E020E040E060E084E103
:1009E00094E00E948E1540E550E06AED72E08CE5DF
:1009F00093E00E9403030F910895A6E0B0E0E3E0C6
:100A0000F5E00C94041D40E855E260E070E08CECE9
:100A100094E00E94611866E071E08CEC94E00E9422
:100A20009E1A64E072E0CE0101960E949A15AE0112
:100A30004F5F5F4F68E072E08CE294E00E94E90D46
:100A400069E772E08CEC94E00E94741A6CE274E046
:100A5000CE0101960E941A0EBE016F5F7F4F8CEC93
:100A600094E00E94B01A8FEB94E09093CF038093B0
:100A7000CE03AC0167E872E08CE593E00E943B0393
:100A800080E693E00E944D082696E2E00C94201D3B
:100A9000CF93DF93EC01C954DF4F388121E0230F5E
:100AA0002883FC01E30FF11DE956FF4F60832032DC
:100AB00049F4BC0169567F4F40E250E00A960E941B
:100AC000AA09188281E090E0DF91CF910895CF9339
:100AD000DF93EC01C954DF4F4881442341F050E0DB
:100AE000BC0169567F4F0A960E94AA091882DF91BD
:100AF000CF910895A4E0B0E0E0E8F5E00C94021D89
:100B00008C014B835C8369837A830E9467054B81E8
:100B10005C8169817A81C8010A960E94AA0924969B
:100B2000E4E00C941E1DCF93DF93FC0111AEEC01A9
:100B30002A96CE010E948B09CE010E94DB0ADF912A
:100B4000CF910895A0E0B0E0E8EAF5E00C94FC1C39
:100B5000EC018C01065F1F4FC8010E94A209882387
:100B6000F1F089AD81113BC00E945F1B6B017C01DC
:100B700028EEC20E23E0D21EE11CF11C5E018FE6BE
:100B8000A80EB11CC8010E941C0B882341F0F5017E
:100B90008081882339F08AAD9BAD892B19F48FEFC2
:100BA0009FEF23C0C8010E94D0098F3FFFEF9F072E
:100BB00059F0F50120812223C1F02AAD3BAD21502F
:100BC00031093BAF2AAF11C00E945F1BC616D70682
:100BD000E806F906B8F6CE010E949305E0CF8150F1
:100BE00089AFC80FD11D898D90E0CDB7DEB7EAE09F
:100BF0000C94181DA0E0B0E0E0E0F6E00C94FC1CC2
:100C00008C017B016B015B01F60181916F018823EF
:100C1000F1F0C8010E94A205E601F50121915F01F2
:100C2000332727FD30958217930771F3BC01C80164
:100C30000E94D7042197CE15DF0539F0FE013197C8
:100C40006081772767FD7095F2CF80E001C081E079
:100C5000CDB7DEB7EAE00C94181DDF92EF92FF9259
:100C60000F931F93CF93DF938C01EB0119821882AE
:100C7000C8010E94A20580329105D1F38930910507
:100C8000B9F38D32910531F4C8010E94A205FF2409
:100C9000F39401C0F12CE12C2AE0D22EAC01405398
:100CA00051094A30510598F428813981D29EA0011A
:100CB000D39E500D1124480F591F40535109598399
:100CC0004883C8010E94A205EE24E394E7CFBC014B
:100CD000C8010E94D704FF2039F02881398131955D
:100CE00021953109398328838E2DCDB7DEB7E7E012
:100CF0000C941B1DEF92FF920F931F93CF93DF93E2
:100D00008C01EB017A0160E070E0CE010E94351D9C
:100D100021E0E21AF108C8010E94A2058032910583
:100D2000D1F389309105B9F322E0E216F1042CF0F9
:100D3000888381E0E81AF1082196C8010E94A20583
:100D40008D30910589F76DE070E0C8010E94D704ED
:100D5000CDB7DEB7E6E00C941C1DA0E0B0E0E3EBFD
:100D6000F6E00C94FE1CEC018B016A017901F9019B
:100D700080819181019791838083FB011182108290
:100D800062E972E0CE010E94FA05882319F081E041
:100D900090E031C067E972E0CE010E94FA05882335
:100DA00019F082E090E027C06DE972E0CE010E9468
:100DB000FA05882319F083E090E01DC063EA72E031
:100DC000CE010E94FA05882319F084E090E013C058
:100DD00068EA72E0CE010E94FA05882319F085E0E6
:100DE00090E009C060EB72E0CE010E94FA05882312
:100DF00031F186E090E0F80191838083CE010E947A
:100E0000A2058F3FFFEF9F0719F08032910519F47B
:100E1000F601108214C08A309105D1F38D3091050E
:100E2000B9F3F70120813181121613061CF4F60183
:100E300081936F01F701808191810197DDCFCDB75B
:100E4000DEB7E8E00C941A1DEF92FF920F931F9308
:100E5000CF93DF93EC011CAE8C01045C1F4F7C012F
:100E60002AE3E20EF11C67EB72E0CE010E94FA0564
:100E7000882329F0B701CE010E942D06F4CF67EC3C
:100E800072E0CE010E94FA05882339F043E350E076
:100E9000B801CE010E947A06E6CF66ED72E0CE017F
:100EA0000E94FA05882329F0C159DF4F81E0888329
:100EB00005C0CE010E94A2050196A9F6CDB7DEB706
:100EC000E6E00C941C1DADE0B0E0E9E6F7E00C9420
:100ED000F91C8C017B015A01DC015796ED91FC91C4
:100EE0005897DF010D900020E9F7CD0101976C01C3
:100EF000CE1ADF0AB8016C5F7F4FCE0101960E94C7
:100F00000F098B819C81D8011D969C938E931C9711
:100F10008D819E81AF81B885F80186879787A08BE8
:100F2000B18B89859A85AB85BC85828B938BA48B8D
:100F3000B58B8D85868BC8010A960E94A2098823ED
:100F400009F475C0F801E159FF4F1082D7011C92D6
:100F50001A8219829501A701BE016F5F7F4FC801F8
:100F60000E94AD0689819A81892BE1F0C8010E9417
:100F700024076BED72E0C7010E94471D89809A80AB
:100F8000892B29F4B401C8010E948B040BC067EEC1
:100F900072E0C7010E94471D892B21F4B401C801EA
:100FA0000E94A40489809A80F501718081149104C3
:100FB00059F0D80157966D917C915897A601C701B9
:100FC0000E94501D892B71F0272D2095221F22276A
:100FD000221FF801E059FF4F0190F081E02DA70199
:100FE000B4011DC0272D2095221F2227221FA701F3
:100FF0004C0D5D1DB401C8010E949B03811111C0FD
:10100000F50121812095221F2227221F69817A81E3
:10101000F801E059FF4F0190F081E02DA701C801D0
:101020001995C8010E946705C8010E9493052D9675
:10103000EDE00C94151DA2E4B0E0E1E2F8E00C94C0
:10104000041D80E490E023969FAF8EAF2397AE01FE
:101050004F5B5F4FBE016F5F7F4F8CE593E00E9457
:101060006307CE5BDF4FE2E00C94201DA1E0B0E00F
:10107000ECE3F8E00C94041D6983DC01ED91FC9134
:101080000280F381E02D41E050E0BE016F5F7F4FB1
:1010900019952196E2E00C94201DADE0B0E0E3E567
:1010A000F8E00C94001D7C0100E010E0602FCE0100
:1010B00001960E94590ACE0101960E946B0A811185
:1010C00016C0F7014481558120E061E0802F0E9425
:1010D0005411802F0E949511F70184819581F801A8
:1010E000EE0FFF1FEC5CFB4F9183808305C00F5F09
:1010F0001F4F04301105D1F62D96E6E00C941C1D0F
:10110000FC011382128280E093E0918380837583D7
:1011100064830895ADE0B0E0E0E9F8E00C94FD1CD4
:101120008C0144E3C42E44E0D42EB12CE12CF12CEC
:101130006B2DCE0101960E94590AD6012D913D9149
:101140006D01F8018481958128173907B1F4CE012A
:1011500001960E946B0A843169F0CE0101960E94CB
:101160006B0A8C3151F4CE0101960E94C409892B7F
:10117000A1F003C0EE24E394F12CB394F4E0BF1289
:10118000D7CFE114F10471F4D801ED91FC91048002
:10119000F581E02DC801199505C0CE0101960E9488
:1011A000DB0AEBCF2D96E9E00C94191DADE0B0E021
:1011B000ECEDF8E00C94F91C6C015B014A010E9413
:1011C0008A0854E3E52E54E0F52E712C00E010E07F
:1011D000672DCE0101960E94590AF70121913191A4
:1011E0007F01F601848195812817390731F4CE01FA
:1011F00001960E946B0A873149F07394F4E07F12E4
:10120000E7CFC8012D96EDE00C94151DA401B501A2
:10121000CE0101960E94AA09080F191FEECFADE07A
:10122000B0E0E5E1F9E00C94FD1C8C016B01CB0111
:101230000E948A0864E3E62E64E0F62EB12C6B2D42
:10124000CE0101960E94590AF701219131917F0147
:10125000F601848195812817390761F4CE01019642
:101260000E946B0A873179F0CE0101960E946B0AC9
:101270008C3149F0B394F4E0BF12E1CF64E0C801CF
:101280000E94590A21C0CE0101960E94C409892BEF
:1012900089F38B819C81F801938382838D819E8168
:1012A000AF81B88584839583A683B78349855A85A2
:1012B0006B857C8540875187628773878AE093E0DE
:1012C000918380838D858487C8012D96E9E00C94F5
:1012D000191D0F9300E020E040E060E08AE194E017
:1012E0000E948E150F910895A1E0B0E0EAE7F9E0C1
:1012F0000C94041D6983DC01ED91FC910280F38163
:10130000E02D41E050E0BE016F5F7F4F19952196BF
:10131000E2E00C94201DCF93DF93EC01E881F9818A
:101320000480F581E02DCE011995892B41F0E881EB
:10133000F9810680F781E02DCE011995EFCFDF917D
:10134000CF91089521E0FC018485843009F420E0E8
:10135000822F08950F931F93CF93DF93EC018A019F
:101360008C85843021F00E94E711892B39F481E0CB
:1013700090E09B838A8380E090E001C0C801DF9108
:10138000CF911F910F910895FC016485643029F07D
:101390008AE494E00E94ED13089580E090E00895BF
:1013A000A1E0B0E0E6EDF9E00C94041D41E050E06E
:1013B000BE016F5F7F4FFC0184850E9436121816B4
:1013C00019061CF4898190E002C08FEF9FEF2196EF
:1013D000E2E00C94201DFC0184850E9436120895E1
:1013E000A1E0B0E0E6EFF9E00C94021D8C01DC0115
:1013F000ED91FC910480F581E02D1995892B51F038
:10140000BE016F5F7F4FF80184850E94771289814A
:1014100090E002C08FEF9FEF2196E4E00C941E1D38
:10142000AFE2B0E0E6E1FAE00C94FE1C7C018B0137
:101430006A01CE0101960E948415CE0109960E9490
:10144000A00CCE018A960E9484156CE274E0CE0155
:1014500084960E942C0EBE016C5D7F4FCE010196DA
:101460000E944B0EAE01465D5F4FB801CE01019662
:101470000E94791081309105C1F4D701ED91FC9162
:101480000484F585E02D8AE493E09DA38CA30CA54C
:101490001DA52EA53FA50EA31FA328A739A7A6010A
:1014A000BE016C5D7F4FC7011995AF96E8E00C94C3
:1014B0001A1DFC01262F1382128248EE53E060E0D1
:1014C00070E044835583668377838AE093E0918359
:1014D000808324870895FC018485843041F090E066
:1014E000982F88278D5F9B4F0E948313089580E07B
:1014F0000895A0E0B0E0EFE7FAE00C94FC1CEC01EA
:101500005B016A018C85843009F04EC033E0E32E24
:1015100034E0F32E00E010E0C7010E948313811134
:1015200002C00C8709C08B7F8831D9F30F5F1F4F32
:10153000F3940430110581F78C858430A9F1209152
:101540000E0230910F022F5F3F4F2115310511F42C
:1015500020E034E030930F0220930E0240910E02FF
:1015600050910F0220E061E00E945411B5016E5FBE
:101570007F4FA6018C850E94A911811103C084E0D0
:101580008C8712C0CE010E946B0A873151F061E056
:1015900070E080E090E00E948E1BCE010E946B0AFA
:1015A000ECCF81E090E002C080E090E0CDB7DEB704
:1015B000EAE00C94181DCF92DF92EF92FF92CF9346
:1015C000DF93EC018C85843081F10E94DF110E9451
:1015D0005F1B6B017C01CE010E946B0A882359F0CE
:1015E0000E945F1B6C197D098E099F09683E73403C
:1015F0008105910598F0CE010E946B0A882319F0AD
:101600008C850E944511EC85F0E0EE0FFF1FEC5C2D
:10161000FB4F1182108284E08C8707C061E070E08C
:1016200080E090E00E948E1BD6CFDF91CF91FF909B
:10163000EF90DF90CF900895CF93DF93EC018C85EE
:101640008430D1F0CE010E946B0A8431A9F0882346
:1016500099F0883189F08C3169F4E881F98104804E
:10166000F581E02DCE01199521E0892B09F420E0C8
:10167000822F03C081E001C080E0DF91CF91089507
:101680000F9300E020E040E060E080E294E00E9400
:101690008E150F910895DC01ED91FC91008CF18D78
:1016A000E02D199508952AE433E0FC01318320836D
:1016B000FB014189528963897489FC014283538308
:1016C000648375830895FC01858996890895FC01DA
:1016D000818D928D0895A1E0B0E0E1E7FBE00C94EC
:1016E000041D6983DC01ED91FC910280F381E02D02
:1016F00041E050E0BE016F5F7F4F19952196E2E017
:101700000C94201DCF93DF93EC01898D9A8D892B4A
:1017100041F0E881F9810680F781E02DCE0119952D
:10172000F4CFDF91CF910895CF93DF93EC018C85B7
:10173000843061F00E944511EC85F0E0EE0FFF1F50
:10174000EC5CFB4F1182108284E08C87DF91CF919B
:101750000895FC01108E178A6E5F7F4F84850E946A
:10176000AB120895FC0184850E94D0120895CF9396
:10177000DF93EC019A018F89988DAB01BC018C85B8
:101780000E9485122F89388D280F391F388F2F8B93
:10179000DF91CF910895A1E0B0E0E1EDFBE00C9482
:1017A000021D8C01FC01818D928D892B59F041E045
:1017B00050E0BE016F5F7F4F84850E94361218167D
:1017C00019061CF08FEF9FEF08C0F801818D928DF4
:1017D0000197928F818F898190E02196E4E00C94AB
:1017E0001E1DCF93DF93EC01898D9A8D009719F41C
:1017F0008FEF9FEF10C04817590708F0AC018C8598
:101800000E943612181619069CF7298D3A8D281B4E
:10181000390B3A8F298FDF91CF910895A1E0B0E085
:10182000E4E1FCE00C94041DFC01218D328D232B9E
:1018300049F0BE016F5F7F4F84850E9477128981D6
:1018400090E002C08FEF9FEF2196E2E00C94201D04
:10185000A8E0B0E0EEE2FCE00C94021D8C01DC019B
:10186000ED91FC910284F385E02D1995F8016485D2
:101870008AE494E00E94ED13892B41F148E050E0A6
:10188000BE016F5F7F4FD8011C968C910E9436126B
:1018900018161906ECF4BE016F5F7F4FC8010F9652
:1018A0000E94AA158D8190E0982F88272E81820FA3
:1018B000911DF801968B858B8F8190E0982F88275A
:1018C0002885820F911D928F818F02C080E090E069
:1018D0002896E4E00C941E1DA0E0B0E0E2E7FCE0F6
:1018E0000C94FE1CEC016B018C85843019F543E0EF
:1018F000E42E44E0F42E00E010E0C7010E948313C0
:10190000811102C00C8708C08831E1F30F5F1F4FBF
:10191000F3940430110589F78C85843059F0DE8604
:10192000CD861A8E198E20E0A60162E00E94541125
:1019300081E001C080E0CDB7DEB7E8E00C941A1D6D
:10194000FC011382128248EE53E060E070E04483B1
:1019500055836683778386E293E09183808384E076
:101960008487CF010F960E9484150895AFE2B0E0FE
:10197000ECEBFCE00C94FE1C7C018B016A01CE01B7
:1019800001960E948415CE0109960E94A00CCE01FA
:101990008A960E9484156CE274E0CE0184960E94BF
:1019A0002C0EBE016C5D7F4FCE0101960E944B0E46
:1019B000AE01465D5F4FB801CE0101960E947910DD
:1019C00081309105C1F4D701ED91FC910088F18936
:1019D000E02D8AE493E09DA38CA30CA51DA52EA564
:1019E0003FA50EA31FA328A739A7A601BE016C5DC2
:1019F0007F4FC7011995AF96E8E00C941A1D0F931D
:101A000000E020E040E060E086E294E00E948E1575
:101A10000F91089544E050E0BC0181E090E00E9405
:101A20005A13089544E050E0BC0185E090E00E9424
:101A30005A13089544E050E0BC018FE090E00E940A
:101A40005A130895A2E0B0E0E8E2FDE00C94FA1C1D
:101A50004C016A0159018AE494E069837A830E9407
:101A60001C1346E050E069817A8189E090E00E9491
:101A70005A13C60102960E941A0DC80102960E94CE
:101A80000A0DC70102960E94120DF5014281538191
:101A900064817581F4014283538364837583229644
:101AA000ECE00C94161DAEE1B0E0E9E5FDE00C942D
:101AB000F81C6C015B017A014901380100E02FEF4D
:101AC0004FEF6FEFCE0149960E948E152AE433E066
:101AD0003A8329838B8D9C8DAD8DBE8D8B839C83AA
:101AE000AD83BE8338872F83F30182819381A481E4
:101AF000B58189879A87AB87BC873E872D87F4019C
:101B000082819381A481B5818F87988BA98BBA8BB1
:101B10003C8B2B8BF70142815381648175814D8B06
:101B20005E8B6F8B788FCE0101967C018E01095FF1
:101B30001F4F9E01235F3F4FAE014D5E5F4FB501CA
:101B4000C6010E94220D6E96EEE00C94141DA8E1D1
:101B5000B0E0EDEAFDE00C94FE1C6B017901DA01C6
:101B600012964D915D916D917C9115974D8B5E8B89
:101B70006F8B788FAAE4B3E0BA83A98321E0288F22
:101B80000D891E892F89388D0B831C832D833E83FD
:101B9000B887AF83F70102811381248135810987DA
:101BA0001A872B873C87BE87AD874F87588B698BF9
:101BB0007A8B8E010F5F1F4F9E01295F3F4FAE0151
:101BC000435F5F4FB6010E94530D6896E8E00C94A6
:101BD0001A1DA2E1B0E0EFEEFDE00C94021DDB0166
:101BE000FA0142815381648175814F87588B698BDB
:101BF0007A8BEAE4F3E0FA83E98321E02A8B0F850C
:101C0000188929893A890B831C832D833E83F887A1
:101C1000EF8349875A876B877C879E012F5F3F4FF1
:101C2000AE01495F5F4FBD010E94A70D6296E4E0DF
:101C30000C941E1DCF93DF93EC010E948415BE010E
:101C40006E5F7F4F44E050E08FE090E00E9483148D
:101C5000CE01DF91CF9108952AE433E0FC01318376
:101C60002083FB014281538164817581FC014283A1
:101C700053836483758308950F9300E020E040E070
:101C800060E08CE394E00E948E158CE294E00E9468
:101C900084150F910895FB01428153816481758100
:101CA000FC014283538364837583178216820895EF
:101CB000CF93FB0181918111FDCFFB0180E090E08A
:101CC00020E030E0CAE06191662309F1243031055B
:101CD00064F56E3271F48F3F910509F034F5DA0145
:101CE000A20FB31F12968C932F5F3F4F80E090E0BE
:101CF000EACFDC01CA9FC001CB9F900D112477274A
:101D000067FD709560537109860F971FDCCF8F3F79
:101D1000910509F054F4243031053CF4FA01E20F46
:101D2000F31F828381E090E002C080E090E0CF91D9
:101D300008950F9300E020E040E060E082E494E04A
:101D40000E948E150F910895A3E0B0E0EAEAFEE04C
:101D50000C94FC1C6C017B010E945F1BF6017783D5
:101D600066838601085F1F4FB6016A5F7F4F42E0BE
:101D700050E0C8010E94B70B81E090E09A8389830C
:101D800042E050E0BE016F5F7F4FC8010E94B70B79
:101D900080E091E09A83898342E050E0BE016F5F6A
:101DA0007F4FC8010E94B70B1A82198242E050E0AF
:101DB000BE016F5F7F4FC8010E94B70B42E050E049
:101DC000BE016F5F7F4FC8010E94B70B42E050E039
:101DD000BE016F5F7F4FC8010E94B70B6701F6011C
:101DE0008081882311F1F7016F018191811115C064
:101DF0005601AE18BF081A141B0494F4AB8241E0DC
:101E000050E0BE016D5F7F4FC8010E94B70BA50176
:101E1000B701C8010E94B70B03C08E3229F7E8CF83
:101E20007601FFEFEF1AFF0ADACF1B8241E050E0A4
:101E3000BE016D5F7F4FC8010E94B70BE12CFF24EC
:101E4000F394FA82E98242E050E0BE016F5F7F4F77
:101E5000C8010E94B70BFA82E98242E050E0BE015D
:101E60006F5F7F4FC8010E94B70B81E090E023961F
:101E7000EAE00C94181DA3E1B0E0E1E4FFE00C946B
:101E8000F61C7C015B016A010E945F1B2B013C0177
:101E90008701085F1F4F4501A12CB12CC8010E948A
:101EA000280C1816190694F00E945F1B6419750916
:101EB0008609970986169706A806B906D0F062E348
:101EC00070E080E090E00E948E1BE8CFF701428135
:101ED000538164817581818D928DA38DB48D481756
:101EE00059076A077B0741F4858D968DC59721F4C4
:101EF00006C08FEF9FEFF9C08EEF9FEFF6C0C801CD
:101F00000E94670B0C970CF4EEC04CE050E0BE0151
:101F10006F5F7F4FC8010E94F10B8B819C819827D6
:101F2000892798279A8B898BF701468157812981C8
:101F30003A814217530711F497FD06C0C8010E9469
:101F4000820B8CEF9FEFD1C08F709270892B31F094
:101F5000C8010E94820B8BEF9FEFC7C0AF80B8848F
:101F6000BA24AB24BA24A114B10419F0E12CF12C49
:101F700023C0C8010E94820B8AEF9FEFB6C041E0E8
:101F800050E0BE01635F7F4FC8010E94F10B8D8559
:101F900081111BC08D858111F2CFC8010E94CB0B2E
:101FA000C8010E94CB0BC8010E94CB0BC8010E9444
:101FB000CB0BFFEFEF1AFF0A8D819E8198278927AF
:101FC0009827E816F906D8F20AC08D859FEF980F7A
:101FD0009D878823F9F2C8010E94CB0BF6CFE12C34
:101FE000F12C41E050E0BE016D5E7F4FC8010E94C0
:101FF000F10B8B89982F907C61F4882371F08B8989
:102000009FEF980F9B8B882341F0C8010E94CB0B58
:10201000F6CFC8010E94CB0B1B8A8B898111E1CFBF
:1020200042E050E0BE01615F7F4FC8010E94F10BAA
:1020300042E050E0BE01635F7F4FC8010E94F10B98
:10204000C8010E94CB0BC8010E94CB0BC8010E94A3
:10205000CB0BC8010E94CB0B42E050E0BE016F5E8B
:102060007F4FC8010E94F10B8F859889811591409F
:1020700029F48D859E858115914019F0812C912C34
:1020800016C089899A898115944031F0C8010E944F
:10209000820B87EF9FEF29C0B6016E5F7F4F44E050
:1020A00050E0C8010E94F10B81E090E01EC08989D8
:1020B0009A899827892798278816990638F4C8019D
:1020C0000E94CB0B2FEF821A920AF1CF8FEFE81A02
:1020D000F80AEA14FB0409F084CFC8010E94820BBD
:1020E00086EF9FEF02C08DEF9FEF6396E0E10C94C7
:1020F000121DA6E0B0E0EFE7F0E10C94FA1C8C01B1
:102100005B016A010E94580E4C01009709F05FC004
:10211000F8014281538164817581809144049091DA
:102120004504A0914604B0914704481759076A072F
:102130007B0709F450C00E945F1B7801F8E0EF0EA6
:10214000F11C6F7077277C5FC7010E946C0C813097
:1021500009F045C08AE493E09A838983F80182817B
:102160009381A481B5818B839C83AD83BE8345E33A
:1021700050E0BE016F5F7F4FC7010E94A90B892B02
:1021800019F4812C912C1FC0B501C8010E94A40E26
:10219000892BB9F3C7010E94B20B892B91F333E06D
:1021A000A32EB12CA60168E873E1C8010E943B0F81
:1021B0004C01F1E0AF1AB108A114B10421F08F3F36
:1021C0002FEF920779F3C7010E94940B08C088246F
:1021D0008394912C04C09EEF892E99249A94C40173
:1021E0002696ECE00C94161D90E0982F882744E08A
:1021F00050E0845F9B4F0E945A130895282F30E0CF
:102200002C5F3F4F922F8827860F971F0E948313C2
:10221000089562E070E00E94FE100895FB01282FEF
:1022200030E02C5F3F4F922F8827642F8E0F9F1F27
:102230000E94FC120895CF93DF93C82FD62F472F0B
:1022400064E070E00E940E114D2F65E070E08C2F6D
:102250000E940E11DF91CF910895462F62E070E049
:102260000E940E110895CF93DF93C82FD62F472FCA
:1022700060E170E00E940E114D2F61E170E08C2F43
:102280000E940E11DF91CF910895CF93C82F40E1A6
:1022900050E0682F8AE494E00E9415156FEF8C2FB0
:1022A0000E942D11CF910895EF92FF921F93CF932B
:1022B000DF931F921F92CDB7DEB7182F7A018FEFF1
:1022C000860F853048F5812F2A8369830E94451146
:1022D0002A816981462F422B60E070E0812F0E94A5
:1022E0000E11E114F10411F0B7010AC06091480425
:1022F000709149046F5F7F4F709349046093480465
:10230000812F0E941B1141E050E0612F8AE494E08C
:102310000E94151581E001C080E00F900F90DF91C1
:10232000CF911F91FF90EF900895CF93C82F63E056
:1023300070E00E94FE10833149F442E050E06C2FBF
:102340008AE494E00E94151581E001C080E0CF91FD
:1023500008951F93CF93DF93182FFB01EA0180812B
:102360008F3F51F481818F3F91F482818F3F79F4C7
:1023700083818F3F61F41EC0811109C08181811169
:1023800006C08281811103C08381882399F0209740
:1023900089F0BF01812F0E94F410BE01812F0E949D
:1023A000331144E050E0612F8AE494E00E94151557
:1023B00081E001C080E0DF91CF911F91089548E056
:1023C00050E0682F8AE494E00E9415150895DF928A
:1023D000EF92FF920F931F93CF93DF93D82E8B0131
:1023E000EA01413088E0580710F0C0E0D8E06D2DD8
:1023F0008AE494E00E94BA137C0163E070E08D2DC2
:102400000E94FE10873111F08C3121F4EC16FD068C
:1024100070F302C0C0E0D0E09E01A8016D2D8AE4F7
:1024200094E00E94781440E250E06D2D8AE494E03C
:102430000E9415158D2D0E94091184FD0DC063E0C9
:1024400070E08D2D0E94FE108111F4CF8D2D0E9421
:10245000451180E090E005C060E18D2D0E942D11B6
:10246000CE01CDB7DEB7E7E00C941B1DDF92EF92F3
:10247000FF920F931F93CF93DF93D82E7B018A0196
:10248000682F8AE494E00E94ED13EC01009799F420
:1024900063E070E08D2D0E94FE10843111F18823DD
:1024A00001F1C1E0D0E08C3111F4C0E0D0E0D19571
:1024B000C195D10916C0081719070CF4E8011C16BC
:1024C0001D067CF400E09E01A7016D2D8AE494E0D6
:1024D0000E94DF1440E450E06D2D8AE494E00E94F5
:1024E0001515CE01CDB7DEB7E7E00C941B1D0F9399
:1024F000AB0101E021E030E0682F8AE494E00E9423
:10250000DF1481E090E00F910895A0E0B0E0EBE8E7
:10251000F2E10C94FD1CB82E7B016A01E901682FE1
:102520008AE494E00E94BA138C179D0730F46B2D57
:102530008AE494E00E94BA13EC018E019601A7018F
:102540006B2D8AE494E00E940814CE01CDB7DEB76B
:10255000E9E00C94191D1F93CF93DF93182FFB0113
:10256000EA018081811109C08181811106C08281C7
:10257000811103C08381882369F0209759F0BF013E
:10258000812F0E94F410BE01812F0E94331181E03F
:1025900090E002C080E090E0DF91CF911F9108951C
:1025A000CF93C82F40E250E0682F8AE494E00E9465
:1025B00015158C2F0E94091184FD0CC08C2F0E94D0
:1025C000091183FFF6CF68E18C2F0E942D1180E066
:1025D00090E006C060E18C2F0E942D1181E090E018
:1025E000CF9108958EBD0DB407FEFDCF8EB5089531
:1025F0002C9808952C9A0895A2E0B0E0E2E0F3E16F
:102600000C94031D182F6A8399830E94F81280EF9F
:102610000E94F2129981892F0E94F212812F0E944A
:10262000F2126A81862F0E94F2120E94FA1281E051
:102630002296E3E00C941F1DCF93DF93EC016CE234
:1026400071E080E090E00E948E1B0E943015249A79
:1026500060E880E090E00E94FC1265E58BE190E08C
:102660000E94FC1265E58AE190E00E94FC1280E085
:1026700090E49983888380E090E69987888780E05A
:1026800098E49B838A8380E098E69B878A8780E032
:1026900090E59D838C8380E090E79D878C8780E028
:1026A00098E59F838E8380E098E79F878E87DF91F0
:1026B000CF910895A0E0B0E0E0E6F3E10C94FE1CB9
:1026C000EC017A018B016C01C40ED51ECC15DD0521
:1026D000A1F00E94F81280EF0E94F2128D2F0E944A
:1026E000F2128C2F0E94F2122196F80181918F0133
:1026F0000E94F2120E94FA12E9CFC701CDB7DEB7ED
:10270000E8E00C941A1DA1E0B0E0E9E8F3E10C94D4
:10271000031D182F99830E94F8128FE00E94F21275
:102720009981892F0E94F212812F0E94F21280E07B
:102730000E94F21289830E94FA1289812196E3E0B5
:102740000C941F1D1F93CF93DF93182F60E270E04E
:102750000E94FE10C82FD0E061E270E0812F0E943D
:10276000FE10DC2FCC279E01282BC901DF91CF91D1
:102770001F910895FF920F931F93CF93DF93F62E2F
:10278000C0E0D0E08F2D0E94A2138C01009721F0B1
:102790008F2D0E94A213EC01C017D10799F7CE012B
:1027A000CDB7DEB7E5E00C941D1D1F93CF93DF93EB
:1027B000182F66E270E00E94FE10C82FD0E067E29A
:1027C00070E0812F0E94FE10DC2FCC279E01282B69
:1027D000C901DF91CF911F910895FF920F931F932D
:1027E000CF93DF93F62EC0E0D0E08F2D0E94D5135B
:1027F0008C01009721F08F2D0E94D513EC01C0179A
:10280000D10799F7CE01CDB7DEB7E5E00C941D1DD9
:102810006F927F929F92AF92BF92CF92DF92EF9290
:10282000FF920F931F93CF93DF931F92CDB7DEB725
:10283000D82E962E3A01590164E270E0892D9983D1
:102840000E94FE10E82EF12C65E270E0892D0E94B6
:10285000FE10FE2CEE24E82AE60CF71C97013770D8
:102860006D2C9981792E690C711C690C711CD30136
:10287000ED91FC91E20FF31FC901800F911F813090
:102880009840A0F0C12C48E0D42EC21AD30AA60169
:10289000B501CF010E945A13A8014C195D09B50179
:1028A0006C0D7D1DF3018081918103C0A801B501EC
:1028B000CF010E945A13E00EF11E4F2D64E270E02A
:1028C000892D0E940E114E2D65E270E0892D0E9427
:1028D0000E110F90DF91CF911F910F91FF90EF900C
:1028E000DF90CF90BF90AF909F907F906F900895B2
:1028F0000F931F9389019A0140E050E00E94081451
:102900001F910F910895A0E0B0E0E9E8F4E10C9484
:10291000FE1CEC017A018B016C01C40ED51ECC1596
:10292000DD05A9F00E94F8128FE00E94F2128D2FAF
:102930000E94F2128C2F0E94F212219680E00E94D7
:10294000F212F80181938F010E94FA12E8CFC701B9
:10295000CDB7DEB7E8E00C941A1DA0E0B0E0E3EBE1
:10296000F4E10C94FE1C69015770EC01C60FD11DF7
:10297000C60FD11D88859985840F951F9A01200F58
:10298000311F2130384090F0E12C68E0F62EE41A37
:10299000F50AA701B6010E948314A8014E195F0928
:1029A000B6016E0D7F1D8885998502C0A801B6010C
:1029B0000E948314CDB7DEB7E8E00C941A1DA0E0A6
:1029C000B0E0E5EEF4E10C94FA1C6C01962E5A018D
:1029D0007901802E68E270E0892D0E94FE10C82FD8
:1029E000D0E069E270E0892D0E94FE10DC2FCC2738
:1029F000C82B87019501AE01692DC6010E94AD1457
:102A000081100EC0CE0DDF1D4D2F68E270E0892DC4
:102A10000E940E114C2F69E270E0892D0E940E1168
:102A2000CDB7DEB7ECE00C94161DCF93C62F61E056
:102A300070E08C2F0E940E1161E070E08C2F0E94DC
:102A4000FE108111F9CFCF9108950F9300E020E09F
:102A500040E060E08AE594E00E948E150F910895B1
:102A600061E085E30E949F1C61E085E30E94661C93
:102A70008CB580618CBD8CB580648CBD61E084E3D5
:102A80000E94661C61E083E30E94661C08950E9418
:102A9000B41B0E94FD04C4E4D7E10E941B082097E8
:102AA000E1F30E944417F9CFA0E0B0E0EAE5F5E1D8
:102AB0000C94FC1C6C017B01C0E0D0E000E010E055
:102AC000F601EC0FFD1F4AE050E06281C7010E9451
:102AD0000D1B5C016EE2C7010E94771A8A0D9B1DD7
:102AE000080F191F2196C330D10551F74AE050E075
:102AF000F6016581C7010E940D1B800F911FCDB7A4
:102B0000DEB7EAE00C94181D2AE433E0FC013183BF
:102B10002083128213821482158208950F93FC0180
:102B20008AE493E0918380836283438324830583D3
:102B30000F9108952AE433E0FC0131832083FB01E7
:102B40004081518162817381FC014283538364839C
:102B500075830895FB014081518162817381FC017D
:102B6000428353836483758308958AE493E090934A
:102B700061048093600410926204109263041092C6
:102B80006404109265040895FC0124853585F901DB
:102B9000E05CFF4F80819181F901EE5BFF4F208166
:102BA0003181821B930B8F7399270895FC018485D3
:102BB0009585FC01E05CFF4F40815181FC01EE5B9B
:102BC000FF4F208131814217530741F00190F0817E
:102BD000E02DE80FF91F808190E008958FEF9FEFBF
:102BE0000895FC0184859585FC01E05CFF4F4081E0
:102BF0005181FC01EE5BFF4F208131814217530769
:102C000079F0A081B181A80FB91F8C912081318109
:102C10002F5F3F4F2F7333273183208390E0089538
:102C20008FEF9FEF0895FC0181A1882329F0A489EB
:102C3000B5898C9186FFFBCF11A20895CF93DF93C6
:102C4000FC0126853785D901A05CBF4F8D919C91F1
:102C5000119701968F739927E901CE5BDF4F488169
:102C6000598184179507D9F30D90BC91A02DA20F1F
:102C7000B31F6C93A685B785A05CBF4F11969C933C
:102C80008E93A689B7892C9181E090E0078C02C0D1
:102C9000880F991F0A94E2F7282B2C9381E081A3D7
:102CA0000488F589E02D80818064808381E090E054
:102CB000DF91CF910895FB01E05CFF4F20813181CE
:102CC0002F5F3F4F2F733327DB01AE5BBF4F4D911B
:102CD0005C912417350739F0A081B181A60FB71F89
:102CE0008C9331832083089508951F920F920FB61D
:102CF0000F9211240BB60F922F933F934F935F9334
:102D00006F937F938F939F93AF93BF93EF93FF93B3
:102D10008091C00082FD07C08091C6006AEC76E019
:102D20000E945B1602C08091C600FF91EF91BF9197
:102D3000AF919F918F917F916F915F914F913F9153
:102D40002F910F900BBE0F900FBE0F901F901895F4
:102D500008951F920F920FB60F9211240BB60F9287
:102D60002F933F934F935F936F937F938F939F9393
:102D7000AF93BF93EF93FF938091C80082FD07C08C
:102D80008091CE0062E476E00E945B1602C08091E2
:102D9000CE00FF91EF91BF91AF919F918F917F9165
:102DA0006F915F914F913F912F910F900BBE0F90BC
:102DB0000FBE0F901F90189508951F920F920FB697
:102DC0000F9211240BB60F922F933F934F935F9363
:102DD0006F937F938F939F93AF93BF93EF93FF93E3
:102DE0008091D00082FD07C08091D6006AEB75E02B
:102DF0000E945B1602C08091D600FF91EF91BF91B7
:102E0000AF919F918F917F916F915F914F913F9182
:102E10002F910F900BBE0F900FBE0F901F90189523
:102E200008951F920F920FB60F9211240BB60F92B6
:102E30002F933F934F935F936F937F938F939F93C2
:102E4000AF93BF93EF93FF938091300182FD07C052
:102E50008091360162E375E00E945B1602C08091AA
:102E60003601FF91EF91BF91AF919F918F917F912B
:102E70006F915F914F913F912F910F900BBE0F90EB
:102E80000FBE0F901F9018958CEC94E00E94C41513
:102E9000892B11F00E9474168AEA94E00E94C415EE
:102EA000892B11F00E94A81688E894E00E94C415AE
:102EB000892B11F00E94DC1686E694E00E94C4156E
:102EC000892B11F00E94101708951F920F920FB6D0
:102ED0000F9211240BB60F922F933F938F939F93D2
:102EE000EF93FF932091C6063091C7068091C806E4
:102EF0009091C9062817390731F48091C1008F7D60
:102F00008093C10014C0E091C806F091C906EA5749
:102F1000F94F20818091C8069091C90601968F7360
:102F200099279093C9068093C8062093C600FF9105
:102F3000EF919F918F913F912F910F900BBE0F902A
:102F40000FBE0F901F9018951F920F920FB60F9201
:102F500011240BB60F922F933F938F939F93EF9370
:102F6000FF9320913E0630913F068091400690915C
:102F700041062817390731F48091C9008F7D80936D
:102F8000C90014C0E0914006F0914106E250FA4FAA
:102F90002081809140069091410601968F73992778
:102FA00090934106809340062093CE00FF91EF91CD
:102FB0009F918F913F912F910F900BBE0F900FBE5D
:102FC0000F901F9018951F920F920FB60F92112419
:102FD0000BB60F922F933F938F939F93EF93FF9393
:102FE0002091B6053091B7058091B8059091B9054B
:102FF0002817390731F48091D1008F7D8093D1005B
:1030000014C0E091B805F091B905EA58FA4F208153
:103010008091B8059091B90501968F739927909387
:10302000B9058093B8052093D600FF91EF919F9149
:103030008F913F912F910F900BBE0F900FBE0F906D
:103040001F9018951F920F920FB60F9211240BB676
:103050000F922F933F938F939F93EF93FF93209122
:103060002E0530912F05809130059091310528175C
:10307000390731F4809131018F7D8093310114C083
:10308000E0913005F0913105E251FB4F20818091B4
:1030900030059091310501968F73992790933105F2
:1030A0008093300520933601FF91EF919F918F918E
:1030B0003F912F910F900BBE0F900FBE0F901F905E
:1030C0001895CF92DF92EF92FF92CF93DF93EC01AE
:1030D0006A017B01411581EE580761057105F9F020
:1030E000EC89FD8981E090E008A002C0880F991F5B
:1030F0000A94E2F7808360E079E08DE390E0A70135
:1031000096010E94D21C215031094109510956955E
:10311000479537952795211580E1380798F0EC8978
:10312000FD89108260E874E88EE190E0A7019601C5
:103130000E94D21C215031094109510956954795E9
:1031400037952795E889F9893083EA89FB892083B7
:1031500019A2EE89FF89408181E090E09C010C8CEE
:1031600002C0220F331F0A94E2F7422B4083EE89FC
:10317000FF8940819C010D8C02C0220F331F0A94ED
:10318000E2F7422B4083EE89FF8940819C010E8C3F
:1031900002C0220F331F0A94E2F7422B4083EE89CC
:1031A000FF8920810F8C02C0880F991F0A94E2F7D3
:1031B000809582238083DF91CF91FF90EF90DF9005
:1031C000CF900895CF931092CF041092CE0488EE42
:1031D00093E0A0E0B0E08093D0049093D104A0935A
:1031E000D204B093D30420E533E03093CD04209390
:1031F000CC044AEC56E05093D9044093D80446E8F6
:1032000056E05093DB044093DA0445EC50E05093D1
:10321000DD044093DC0444EC50E05093DF04409321
:10322000DE0440EC50E05093E1044093E00441ECB4
:1032300050E05093E3044093E20442EC50E050939A
:10324000E5044093E40446EC50E05093E7044093D7
:10325000E604C4E0C093E804F3E0F093E904E7E097
:10326000E093EA0475E07093EB0461E06093EC0492
:103270001092AD041092AC048093AE049093AF040E
:10328000A093B004B093B1043093AB042093AA048C
:1032900042E456E05093B7044093B6044EEF55E035
:1032A0005093B9044093B8044DEC50E05093BB04E4
:1032B0004093BA044CEC50E05093BD044093BC04DE
:1032C00048EC50E05093BF044093BE0449EC50E0FA
:1032D0005093C1044093C0044AEC50E05093C3049F
:1032E0004093C2044EEC50E05093C5044093C40494
:1032F000C093C604F093C704E093C8047093C90454
:103300006093CA0410928B0410928A0480938C04F8
:1033100090938D04A0938E04B0938F04309389040E
:10332000209388044AEB55E050939504409394040D
:1033300046E755E0509397044093960445ED50E0DE
:10334000509399044093980444ED50E050939B04AB
:1033500040939A0440ED50E050939D0440939C04A8
:1033600041ED50E050939F0440939E0442ED50E0A5
:103370005093A1044093A00446ED50E05093A30461
:103380004093A204C093A404F093A504E093A60480
:103390007093A7046093A8041092690410926804C3
:1033A00080936A0490936B04A0936C04B0936D04B3
:1033B000309367042093660482E395E0909373044E
:1033C000809372048EEE94E090937504809374045D
:1033D00085E391E0909377048093760484E391E011
:1033E000909379048093780480E391E090937B0438
:1033F00080937A0481E391E090937D0480937C0430
:1034000082E391E090937F0480937E0486E391E0D1
:103410009093810480938004C0938204F09383048A
:10342000E09384047093850460938604CF9108959B
:10343000A0E0B0E0EEE1FAE10C94FE1C6C017A0130
:10344000EB01E60EF71E00E010E0CE15DF0561F09F
:103450006991D601ED91FC910190F081E02DC601BA
:103460001995080F191FF1CFC801CDB7DEB7E8E0F5
:103470000C941A1D6115710589F0DB010D90002077
:10348000E9F7AD0141505109461B570BDC01ED91A5
:10349000FC910280F381E02D1995089580E090E081
:1034A0000895EF92FF920F931F93CF93DF938C01B8
:1034B000FB01C0E0D0E064917F018FEFE81AF80AC9
:1034C000662361F0D801ED91FC910190F081E02D2F
:1034D000C8011995C80FD91FF701EDCFCE01CDB79F
:1034E000DEB7E6E00C941C1D0E943A1A0895DC0138
:1034F000ED91FC910190F081E02D19950895DB018B
:10350000ED91FC9111970190F081E02DBC01CD016E
:10351000199508950F931F93CF93DF93EC016DE0FE
:103520000E94771A8C016AE0CE010E94771A800F00
:10353000911FDF91CF911F910F9108950F931F93CA
:10354000CF93DF93EC010E94511A8C01CE010E94AF
:103550008A1A800F911FDF91CF911F910F910895CB
:103560000F931F93CF93DF93EC010E947F1A8C017E
:10357000CE010E948A1A800F911FDF91CF911F9177
:103580000F910895A1E2B0E0E8ECFAE10C94FA1C86
:103590007C01C42EE52FCB01D22E19A221E02D15DE
:1035A00010F02AE0D22E8E010F5D1F4F8D2C912C32
:1035B000A12CB12C6C2D7E2FA50194010E94D21C50
:1035C0008C2DD29E80191124015011098A3014F4D7
:1035D000805D01C0895CF8018083211531054105BA
:1035E000510521F0C22EE32FCA01E4CFB801C70173
:1035F0000E943A1AA196ECE00C94161D2115310593
:1036000049F4DC01ED91FC910190F081E02D642FF3
:10361000199508950E94C21A08959A01462F50E004
:1036200060E070E00E94FE1A08951F920F920FB69C
:103630000F9211242F933F938F939F93AF93BF9338
:1036400080910F0790911007A0911107B091120778
:1036500030910E0723E0230F2D3720F40196A11D92
:10366000B11D05C026E8230F0296A11DB11D2093B0
:103670000E0780930F0790931007A0931107B09344
:1036800012078091130790911407A0911507B0912C
:1036900016070196A11DB11D80931307909314077F
:1036A000A0931507B0931607BF91AF919F918F918B
:1036B0003F912F910F900FBE0F901F9018952FB72D
:1036C000F89460910F077091100780911107909105
:1036D00012072FBF08953FB7F89480911307909178
:1036E0001407A0911507B091160726B5A89B05C031
:1036F0002F3F19F00196A11DB11D3FBF6627782FFE
:10370000892F9A2F620F711D811D911D42E0660F56
:10371000771F881F991F4A95D1F70895CF92DF929E
:10372000EF92FF92CF93DF936B017C010E946B1BA2
:10373000EB01C114D104E104F10479F00E946B1B88
:103740006C1B7D0B683E7340A0F381E0C81AD10862
:10375000E108F108C851DC4FECCFDF91CF91FF9029
:10376000EF90DF90CF900895789484B5826084BD07
:1037700084B5816084BD85B5826085BD85B5816075
:1037800085BDEEE6F0E0808181608083E1E8F0E0D5
:103790001082808182608083808181608083E0E804
:1037A000F0E0808181608083E1EBF0E080818460E3
:1037B0008083E0EBF0E0808181608083E1E9F0E0EC
:1037C000808182608083808181608083E0E9F0E095
:1037D000808181608083E1EAF0E080818260808383
:1037E000808181608083E0EAF0E080818160808375
:1037F000E1E2F1E08081826080838081816080836A
:10380000E0E2F1E0808181608083EAE7F0E080819E
:1038100084608083808182608083808181608083F6
:103820008081806880831092C100089590E0FC013F
:103830003197E131F10508F048C0EE58FF4F0C9484
:103840002B1D809180008F7703C0809180008F7D39
:1038500080938000089584B58F7702C084B58F7DF2
:1038600084BD08958091B0008F7703C08091B0002F
:103870008F7D8093B0000895809190008F7707C06E
:10388000809190008F7D03C080919000877F80930E
:10389000900008958091A0008F7707C08091A000CC
:1038A0008F7D03C08091A000877F8093A000089542
:1038B000809120018F7707C0809120018F7D03C008
:1038C00080912001877F809320010895CF93DF931B
:1038D00090E0FC01EA5EFC4F2491FC01E45AFC4FAD
:1038E0008491882349F190E0880F991FFC01E454EA
:1038F000FC4FA591B4918E559C4FFC01C591D4917C
:103900009FB7611108C0F8948C91209582238C9305
:10391000888182230AC0623051F4F8948C91322F4E
:10392000309583238C938881822B888304C0F894FC
:103930008C91822B8C939FBFDF91CF910895A1E052
:10394000B0E0E5EAFCE10C94021D282F30E0F9011B
:10395000E053FD4F8491F901EA5EFC4F1491F901A7
:10396000E45AFC4F04910023C9F0882321F06983B5
:103970000E94161C6981E02FF0E0EE0FFF1FEE554C
:10398000FC4FA591B4919FB7F8948C91611103C03D
:103990001095812301C0812B8C939FBF2196E4E079
:1039A0000C941E1DA1E21A2EAA1BBB1BFD010DC00B
:1039B000AA1FBB1FEE1FFF1FA217B307E407F507DF
:1039C00020F0A21BB30BE40BF50B661F771F881FBB
:1039D000991F1A9469F760957095809590959B0151
:1039E000AC01BD01CF0108952F923F924F925F929B
:1039F0006F927F928F929F92AF92BF92CF92DF92FF
:103A0000EF92FF920F931F93CF93DF93CDB7DEB763
:103A1000CA1BDB0B0FB6F894DEBF0FBECDBF1994E7
:103A20002A88398848885F846E847D848C849B844E
:103A3000AA84B984C884DF80EE80FD800C811B815C
:103A4000AA81B981CE0FD11D0FB6F894DEBF0FBE8B
:103A5000CDBFED010895EE0FFF1F0590F491E02D0D
:103A600019940790F691E02D1994DC0101C06D9333
:103A700041505040E0F70895FC018191861721F0F4
:103A80008823D9F7992708953197CF010895FB012D
:103A9000DC018D91019080190110D9F3990B0895E3
:103AA000FB01DC014150504030F08D9101908019B4
:103AB00019F40020B9F7881B990B0895F894FFCFEB
:103AC00001000000C0A80132AEADBEEFFEED000463
:103AD00042617369632000746578742F706C61694A
:103AE0006E0043616368652D436F6E74726F6C3A4C
:103AF000206D61782D6167653D3331353336303067
:103B0000300D0A00696D6167652F782D69636F6EEE
:103B100000746578742F68746D6C3B206368617203
:103B20007365743D7574662D3800636865636B62F8
:103B30006F7800726164696F0073657276657220D8
:103B400069732061742000696E6465782E68746DF5
:103B50006C004745542000484541442000504F53D5
:103B6000542000505554200044454C4554452000F5
:103B700050415443482000436F6E74656E742D4C61
:103B8000656E6774683A00417574686F72697A612E
:103B900074696F6E3A000D0A0D0A002F726F626F22
:103BA00074732E747874002F66617669636F6E2E5D
:103BB00069636F000000000048057A0500000000FE
:103BC0003608D6084D08000000007409AA09C40987
:103BD000D009F0098B09790A100AEB09DB0A1C0BE2
:103BE000A209000000006B0BB70B670BCB0B0E0C90
:103BF000820B6C0C940BA90BB60CB20B280CF10BBE
:103C00004B0B530B630B0000000054150000000029
:0C3C10001E16181AC415F115D61513164F
:00000001FF
